{
  "contractName": "EtherWallet",
  "abi": [
    {
      "inputs": [
        {
          "internalType": "address",
          "name": "_owner",
          "type": "address"
        }
      ],
      "payable": false,
      "stateMutability": "nonpayable",
      "type": "constructor"
    },
    {
      "constant": true,
      "inputs": [],
      "name": "owner",
      "outputs": [
        {
          "internalType": "address",
          "name": "",
          "type": "address"
        }
      ],
      "payable": false,
      "stateMutability": "view",
      "type": "function"
    },
    {
      "constant": false,
      "inputs": [],
      "name": "deposit",
      "outputs": [],
      "payable": true,
      "stateMutability": "payable",
      "type": "function"
    },
    {
      "constant": false,
      "inputs": [
        {
          "internalType": "address payable",
          "name": "_receipt",
          "type": "address"
        },
        {
          "internalType": "uint256",
          "name": "_amount",
          "type": "uint256"
        }
      ],
      "name": "sendEther",
      "outputs": [],
      "payable": false,
      "stateMutability": "nonpayable",
      "type": "function"
    },
    {
      "constant": true,
      "inputs": [],
      "name": "etherBalance",
      "outputs": [
        {
          "internalType": "uint256",
          "name": "",
          "type": "uint256"
        }
      ],
      "payable": false,
      "stateMutability": "view",
      "type": "function"
    }
  ],
  "bytecode": "0x608060405234801561001057600080fd5b5060405161034a38038061034a8339818101604052602081101561003357600080fd5b8101908080519060200190929190505050806000806101000a81548173ffffffffffffffffffffffffffffffffffffffff021916908373ffffffffffffffffffffffffffffffffffffffff160217905550506102b6806100946000396000f3fe60806040526004361061003f5760003560e01c80638da5cb5b14610044578063ad66e52a1461009b578063c1756a2c146100c6578063d0e30db014610121575b600080fd5b34801561005057600080fd5b5061005961012b565b604051808273ffffffffffffffffffffffffffffffffffffffff1673ffffffffffffffffffffffffffffffffffffffff16815260200191505060405180910390f35b3480156100a757600080fd5b506100b0610150565b6040518082815260200191505060405180910390f35b3480156100d257600080fd5b5061011f600480360360408110156100e957600080fd5b81019080803573ffffffffffffffffffffffffffffffffffffffff16906020019092919080359060200190929190505050610158565b005b61012961024e565b005b6000809054906101000a900473ffffffffffffffffffffffffffffffffffffffff1681565b600047905090565b6000809054906101000a900473ffffffffffffffffffffffffffffffffffffffff1673ffffffffffffffffffffffffffffffffffffffff163373ffffffffffffffffffffffffffffffffffffffff1614156101f9578173ffffffffffffffffffffffffffffffffffffffff166108fc829081150290604051600060405180830381858888f193505050501580156101f3573d6000803e3d6000fd5b5061024a565b6040517f08c379a00000000000000000000000000000000000000000000000000000000081526004018080602001828103825260318152602001806102516031913960400191505060405180910390fd5b5050565b56fe53656e646572206973206e6f7420616c6c6f77656420746f20706572666f726d2074686973207472616e73616374696f6ea265627a7a72315820949f4a22cac6b2860aac42ba47b77fdb77d14aa50ad097b78f059ee2fdb8ad7c64736f6c63430005100032",
  "source": "pragma solidity >=0.4.17 <0.7.0;\r\n\r\ncontract EtherWallet {\r\n    address public owner;\r\n    \r\n    constructor(address _owner) public {\r\n        owner = _owner;\r\n    }\r\n    \r\n    function deposit() payable public {\r\n        \r\n    }\r\n    \r\n    function sendEther(address payable _receipt, uint _amount) public {\r\n       if(msg.sender == owner) {\r\n        _receipt.transfer(_amount);\r\n        return;\r\n       }\r\n       revert(\"Sender is not allowed to perform this transaction\");\r\n    }\r\n    \r\n    function etherBalance() view public returns(uint) {\r\n        return address(this).balance;\r\n    }\r\n}",
  "sourcePath": "C:/Users/Sam/Documents/GitHub/Transaction-Wallet/contracts/EtherWallet.sol",
  "compiler": {
    "name": "solc",
    "version": "0.5.16+commit.9c3226ce.Emscripten.clang"
  },
  "schemaVersion": "3.2.5",
  "updatedAt": "2020-09-21T00:10:49.956Z",
  "networkType": "ethereum",
  "devdoc": {
    "methods": {}
  },
  "userdoc": {
    "methods": {}
  }
}